S01B0000417276656E53656E736F72436F6E74726F6C732E737265633F
S11300000C94BD000C94DA000C94DA000C94DA0021
S11300100C94DA000C94B7070C94DA000C94DA0010
S11300200C94DA000C94DA000C94DA000C947D073A
S11300300C94DA000C94DA000C94DA000C94DA00D4
S11300400C94DA000C94DA000C94DA000C94DA00C4
S11300500C94DA000C94DA000C94DA000C94DA00B4
S11300600C94DA000C94DA001C01260130013A01E8
S113007044014E01580162016E616E00696E6600B2
S113008000407A10F35A00A0724E18090010A5D44B
S1130090E80000E87648170000E40B54020000CAA8
S11300A09A3B000000E1F5050000809698000000EE
S11300B040420F000000A08601000000102700004D
S11300C00000E803000000006400000000000A00D3
S11300D0000000000100000000002C76D888DC67D6
S11300E04F0823DFC1DFAE59E1B1B796E5E3E4532E
S11300F0C63AE651997696E8E6C28426EB898C9B4B
S113010062ED407C6FFCEFBC9C9F40F2BAA56FA5EA
S1130110F490055A2AF75C936B6CF9676DC11BFC6C
S1130120E0E40D47FEF520E6B500D0ED902E030087
S1130130943577050080841E080000204E0A0000D4
S113014000C80C333333330F986E12831141EF8D93
S11301502114893BE65516CFFEE6DB18D1844B38D3
S11301601BF77C1D901DA4BBE424203284725E2204
S11301708100C9F124ECA1E53D2711241FBECFEF76
S1130180D8E0DEBFCDBF11E0A0E0B1E0EAE3FEE1DC
S113019002C005900D92A232B107D9F721E0A2E284
S11301A0B1E001C01D92A233B207E1F70E940C072F
S11301B00C941B0F0C940000CF93DF931F92CDB7C8
S11301C0DEB7898384E690E024E630E0F9012081FB
S11301D02E7FFC0120838CE790E0FC0110828BE7EA
S11301E090E0FC01108289810E9400018AE790E07E
S11301F027EEFC01208300000F90DF91CF9108953A
S1130200CF93DF931F92CDB7DEB789838981882F7F
S113021090E0092E000CAA0BBB0B40E050E027E055
S113022030E0841B950B2817390708F455C08C5C03
S11302309F4FFC010C944D0D8EE790E02EE730E0CB
S1130240F90120812160FC0120834AC08EE790E0FF
S11302502EE730E0F90120812260FC01208340C0B8
S11302608EE790E02EE730E0F90120812460FC0164
S1130270208336C08EE790E02EE730E0F90120813C
S11302802860FC0120832CC08EE790E02EE730E04C
S1130290F90120812061FC01208322C08EE790E0D7
S11302A02EE730E0F90120812062FC01208318C090
S11302B08EE790E02EE730E0F90120812064FC0114
S11302C020830EC08EE790E02EE730E0F901208114
S11302D02068FC01208304C08EE790E0FC011082BA
S11302E08CE790E02CE730E0F9012081207FFC01CD
S11302F020838CE790E02CE730E0F90130812981FC
S1130300232BFC01208300000F90DF91CF910895EF
S11303100F931F93CF93DF93CDB7DEB72C970FB610
S1130320F894DEBF0FBECDBF6B837C838D839E8329
S11303302F83388749875A871C870B878B819C8139
S1130340AD81BE81880F991FAA1FBB1F9C01AD01FF
S1130350220F331F441F551F220F331F441F551FE5
S1130360820F931FA41FB51F689413F8B695A79521
S1130370979587951694D1F72F81388549855A85A5
S1130380BC01CD010E942B0DDA01C9010596A11D06
S1130390B11D2AE030E040E050E0BC01CD010E94F4
S11303A02B0DDA01C90101979A83898389819A8186
S11303B08115904118F08FEF9FEF2FC084E690E0F5
S11303C024E630E0F90120812D7FFC01208385ECB7
S11303D090E029813A81232F3327FC01208384EC88
S11303E090E02981FC01208381EC90E028E1FC016C
S11303F0208382EC90E026E0FC0120838B859C85A1
S1130400892B49F081EC90E021EC30E0F901208166
S11304102068FC01208380E090E02C960FB6F894CD
S1130420DEBF0FBECDBFDF91CF911F910F91089515
S1130430CF93DF931F92CDB7DEB78983000080ECA2
S113044090E0FC018081882F90E080729927892BAD
S1130450B1F380EC90E0FC018081882F90E08074FF
S11304609927892B29F080EC90E020E4FC0120837B
S113047086EC90E02981FC01208300000F90DF913D
S1130480CF910895CF93DF9300D0CDB7DEB79A8391
S113049089830BC089819A81FC0180810E941802A2
S11304A089819A8101969A83898389819A81FC0141
S11304B08081882379F700000F900F90DF91CF910E
S11304C00895CF93DF9300D01F92CDB7DEB7898311
S11304D07B836A8384E690E024E630E0F90120819E
S11304E0277FFC01208381E890E0FC01108281E8F1
S11304F090E021E830E0F90130812981232BFC01CF
S1130500208388E890E024E830E0F90140815181BB
S11305102A813B81240F351FFC01318320838FE620
S113052090E022E0FC01208300000F900F900F90D8
S1130530DF91CF910895CF93DF93CDB7DEB780E0FD
S11305400E94DC000000DF91CF910895CF93DF93E8
S11305501F92CDB7DEB789838981882F90E08130DF
S1130560910561F18230910509F44DC0892B09F0A0
S11305706FC08AE290E02AE230E0F9012081206233
S1130580FC0120838AE290E02AE230E0F901208134
S11305902F7BFC0120838DE690E02DE630E0F9010D
S11305A020812064FC01208388E690E028E630E086
S11305B0F90120812460FC0120834AC08AE290E092
S11305C02AE230E0F90120812068FC01208384E2E2
S11305D090E024E230E0F90120812E7FFC012083A9
S11305E08BE690E02BE630E0F90120812160FC01EC
S11305F0208388E690E028E630E0F901208121603C
S1130600FC01208325C084E290E024E230E0F9017B
S113061020812260FC01208384E290E024E230E027
S1130620F90120812B7FFC0120838BE690E02BE6EF
S113063030E0F90120812460FC01208388E690E009
S113064028E630E0F90120812160FC0120830000CC
S113065000000F90DF91CF910895CF93DF93CDB732
S1130660DEB729970FB6F894DEBF0FBECDBF8D83DA
S11306704E835F83688779878D810E946A03DC01DA
S1130680CB0189839A83AB83BC8320E030E0A9014A
S113069069817A818B819C810E943C0988237CF04A
S11306A02E813F814885598569817A818B819C811E
S11306B00E94E40788231CF481E090E002C080E0FB
S11306C090E029960FB6F894DEBF0FBECDBFDF9140
S11306D0CF910895CF93DF93CDB7DEB729970FB6A7
S11306E0F894DEBF0FBECDBF89871D821E821F8294
S11306F0188680E090E0A0E8BFEB89839A83AB83FF
S1130700BC831092220110922301109224011092B2
S113071025011092260110922701109228011092AF
S1130720290189850E942A04892BE9F089850E9480
S11307308B06DC01CB018D839E83AF83B8878D81CB
S11307409E81AF81B885BB2374F08D819E81AF817A
S1130750B885BC01CD010E94CF06DC01CB018983A1
S11307609A83AB83BC8389819A81AB81BC81BC01B0
S1130770CD0129960FB6F894DEBF0FBECDBFDF9131
S1130780CF910895CF93DF9300D0CDB7DEB780919A
S113079000018A3009F458C01A821982809100013C
S11307A0882F90E08130910589F082309105C9F05D
S11307B0892B09F021C089E290E0FC018081882F17
S11307C090E0807499279A83898316C083E290E02D
S11307D0FC018081882F90E0817099279A83898316
S11307E00BC083E290E0FC018081882F90E084704C
S11307F099279A838983000089819A81892B89F0BA
S113080084E890E0FC0180819181CC01A0E0B0E01B
S11308108093220190932301A0932401B093250196
S113082013C084E890E0FC0180819181CC01A0E0B8
S1130830B0E08093260190932701A0932801B09300
S113084029018AE08093000100000F900F90DF914E
S1130850CF910895CF93DF93CDB7DEB7C354D109B9
S11308600FB6F894DEBF0FBECDBF9E012D5B3F4F88
S1130870F9018083809100018A3009F040C2CE01E1
S11308808D5B9F4FFC01808180930001809100016A
S1130890882F90E08130910559F08230910569F0FC
S11308A0892B09F00FC080E290E09A8389830AC003
S11308B080E890E09A83898305C082E090E09A837F
S11308C0898300008BE290E02BE230E0F901208183
S11308D0322F298120952323FC01208380E090E09E
S11308E0A0E0B0E48B839C83AD83BE832BEA3AEA19
S11308F04AEA50E46B817C818D819E810E9441098A
S1130900DC01CB018FA398A7A9A7BAA720E030E008
S113091040E850E46B817C818D819E810E94410975
S1130920DC01CB018BA79CA7ADA7BEA720E030E0DC
S113093040E85FE36FA178A589A59AA50E94E40722
S113094088231CF481E08FA7BEC020E03FEF4FE76F
S113095057E46BA57CA58DA59EA50E943C0918169D
S11309600CF07BC020E030E04AE754E46B817C81EA
S11309708D819E810E94E907DC01CB0188AB99AB94
S1130980AAABBBAB20E030E04AE755E468A979A9FB
S11309908AA99BA90E944109DC01CB018CAB9DABC8
S11309A0AEABBFAB20E030E040E85FE36CA97DA9CB
S11309B08EA99FA90E94E40788232CF481E090E08B
S11309C099AF88AF3FC020E03FEF4FE757E46CA9F1
S11309D07DA98EA99FA90E943C0918164CF520E018
S11309E030E040E251E468A979A98AA99BA90E9450
S11309F04109DC01CB01BC01CD010E945B08DC0193
S1130A00CB0199AF88AF0FC080E991E09BAF8AAF6B
S1130A108AAD9BAD0197F1F79BAF8AAF88AD99ADD5
S1130A20019799AF88AF88AD99AD892B69F74BC011
S1130A306CA97DA98EA99FA90E945B08DC01CB014A
S1130A4099AF88AF88AD99AD9DAF8CAF8CAD9DAD9E
S1130A500197F1F79DAF8CAF36C020E030E04FE74F
S1130A6053E46FA178A589A59AA50E943C0918169C
S1130A700CF56BA57CA58DA59EA50E945B08DC01E9
S1130A80CB019FAF8EAFCE01805C9F4F2EAD3FADAB
S1130A90FC0131832083CE01805C9F4FFC01808167
S1130AA091810197F1F79E01205C3F4FF9019183F9
S1130AB080831CC06FA178A589A59AA50E945B08B4
S1130AC0DC01CB018FA7CE018E5B9F4F2FA5FC01CC
S1130AD02083CE018E5B9F4FFC018081282F2A95B5
S1130AE0F1F7CE018E5B9F4FFC0120838BE290E0F7
S1130AF02BE230E0F9012081322F2981232BFC01E4
S1130B00208380E090E0A0E2B1E48F839887A987F6
S1130B10BA872BEA3AEA4AEA50E46F8178858985F4
S1130B209A850E944109DC01CB018B879C87AD87A4
S1130B30BE8720E030E040E850E46F817885898505
S1130B409A850E944109DC01CB018F87988BA98B80
S1130B50BA8B20E030E040E85FE36B857C858D85CF
S1130B609E850E94E40788231CF481E08B8BB2C02D
S1130B7020E03FEF4FE757E46F85788989899A89A8
S1130B800E943C0918160CF07BC020E030E04AE7D4
S1130B9054E46F81788589859A850E94E907DC0190
S1130BA0CB018C8B9D8BAE8BBF8B20E030E04AE772
S1130BB055E46C897D898E899F890E944109DC01F5
S1130BC0CB01888F998FAA8FBB8F20E030E040E85B
S1130BD05FE3688D798D8A8D9B8D0E94E40788235D
S1130BE02CF481E090E09D8F8C8F3FC020E03FEF9C
S1130BF04FE757E4688D798D8A8D9B8D0E943C095F
S1130C0018164CF520E030E040E251E46C897D890F
S1130C108E899F890E944109DC01CB01BC01CD0171
S1130C200E945B08DC01CB019D8F8C8F0FC080E993
S1130C3091E09F8F8E8F8E8D9F8D0197F1F79F8FFF
S1130C408E8F8C8D9D8D01979D8F8C8F8C8D9D8D1E
S1130C50892B69F73FC0688D798D8A8D9B8D0E94A1
S1130C605B08DC01CB019D8F8C8F8C8D9D8D99A3AE
S1130C7088A388A199A10197F1F799A388A32AC011
S1130C8020E030E04FE753E46B857C858D859E85BD
S1130C900E943C091816ACF46F85788989899A8971
S1130CA00E945B08DC01CB019BA38AA38AA19BA1C0
S1130CB09DA38CA38CA19DA10197F1F79DA38CA367
S1130CC00FC06B857C858D859E850E945B08DC0149
S1130CD0CB018B8B8B898EA38EA18A95F1F78EA382
S1130CE08BE290E02BE230E0F9012081322F298160
S1130CF020952323FC01208381E090E002C080E062
S1130D0090E0CD5BDF4F0FB6F894DEBF0FBECDBFD2
S1130D10DF91CF910895EF92FF920F931F93CF939A
S1130D20DF931F92CDB7DEB789839091000189814B
S1130D30981741F500009091000189819817D9F323
S1130D4020912601309127014091280150912901D9
S1130D508091220190912301A0912401B091250159
S1130D6079018A01E81AF90A0A0B1B0BD801C70199
S1130D70BB231CF40196A11DB11DB595A7959795AC
S1130D80879503C08FEF9FEFDC01BC01CD010F906D
S1130D90DF91CF911F910F91FF90EF900895CF9322
S1130DA0DF93CDB7DEB728970FB6F894DEBF0FBE3A
S1130DB0CDBF6D837E838F83988788E29EE7ACE006
S1130DC0BDE389839A83AB83BC836D817E818F81EC
S1130DD098850E948C08DC01CB0129813A814B81E2
S1130DE05C81BC01CD010E944109DC01CB0120E002
S1130DF030E040E050E4BC01CD010E94E907DC0191
S1130E00CB01BC01CD0128960FB6F894DEBF0FBE0E
S1130E10CDBFDF91CF9108950F931F93CF93DF93AD
S1130E2000D000D0CDB7DEB784EF91E09C838B83F4
S1130E308B819C819A83898388EE93E0BC0182E054
S1130E400E94610283E590E023E530E0F90120810E
S1130E502160FC01208301E010E020E835E240E05D
S1130E6050E060E074E284EF90E00E94880181E049
S1130E7091E00E9442020E949B0280E00E94A6022E
S1130E80789487E290E027E230E0F9012081246041
S1130E90FC01208340E050E060E271E480E00E94C5
S1130EA02D03892B51F088E290E028E230E0F9012B
S1130EB020812460FC01208309C088E290E028E2BC
S1130EC030E0F90120812B7FFC01208388958091FB
S1130ED02A0190912B0129813A81281B390B8B819E
S1130EE09C8182179307B0F629813A818B819C817A
S1130EF0820F931F9A838983CDCF1F920F92009004
S1130F005F000F9211242F933F934F935F938F931E
S1130F109F93EF93FF93CF93DF93CDB7DEB788E82A
S1130F2090E028E830E0F9014081518128EE33E077
S1130F30240F351FFC013183208380912A01909175
S1130F402B01019690932B0180932A010000DF91DD
S1130F50CF91FF91EF919F918F915F914F913F912D
S1130F602F910F9000925F000F901F9018951F9281
S1130F700F9200905F000F9211242F933F934F9391
S1130F805F936F937F938F939F93AF93BF93EF93ED
S1130F90FF93CF93DF93CDB7DEB70E94C203000067
S1130FA0DF91CF91FF91EF91BF91AF919F918F917D
S1130FB07F916F915F914F913F912F910F9000928C
S1130FC05F000F901F9018950E94C70808F481E0F5
S1130FD008950E94FD070C9402090E94FB0858F032
S1130FE00E94F40840F029F45F3F29F00C94EB08C8
S1130FF051110C9436090C94F1080E94130968F3FA
S11310009923B1F3552391F3951B550BBB27AA27BD
S113101062177307840738F09F5F5F4F220F331FF7
S1131020441FAA1FA9F335D00E2E3AF0E0E832D0BF
S113103091505040E695001CCAF72BD0FE2F29D0C2
S1131040660F771F881FBB1F261737074807AB0794
S1131050B0E809F0BB0B802DBF01FF2793585F4F09
S11310603AF09E3F510578F00C94EB080C94360945
S11310705F3FE4F3983ED4F3869577956795B795EB
S1131080F7959F5FC9F7880F911D9695879597F9F6
S11310900895E1E0660F771F881FBB1F621773076F
S11310A08407BA0720F0621B730B840BBA0BEE1F84
S11310B088F7E09508950E941B0988F09F5798F0DF
S11310C0B92F9927B751B0F0E1F0660F771F881F49
S11310D0991F1AF0BA95C9F714C0B13091F00E9463
S11310E03509B1E008950C943509672F782F8827C6
S11310F0B85F39F0B93FCCF3869577956795B3958A
S1131100D9F73EF490958095709561957F4F8F4FF8
S11311109F4F0895E89409C097FB3EF490958095FD
S1131120709561957F4F8F4F9F4F9923A9F0F92FA9
S113113096E9BB279395F695879577956795B79527
S1131140F111F8CFFAF4BB0F11F460FF1BC06F5F0D
S11311507F4F8F4F9F4F16C0882311F096E911C01F
S1131160772321F09EE8872F762F05C0662371F040
S113117096E8862F70E060E02AF09A95660F771F54
S1131180881FDAF7880F9695879597F90895990F30
S11311900008550FAA0BE0E8FEEF16161706E8073D
S11311A0F907C0F012161306E407F50798F0621B5E
S11311B0730B840B950B39F40A2661F0232B242B33
S11311C0252B21F408950A2609F4A140A6958FEF52
S11311D0811D811D089597F99F6780E870E060E0A4
S11311E008959FEF80EC089500240A9416161706BC
S11311F018060906089500240A9412161306140604
S113120005060895092E0394000C11F4882352F066
S1131210BB0F40F4BF2B11F460FF04C06F5F7F4F1E
S11312208F4F9F4F089557FD9058440F551F59F005
S11312305F3F71F04795880F97FB991F61F09F3FBF
S113124079F087950895121613061406551FF2CFE8
S11312504695F1DF08C0161617061806991FF1CF38
S113126086957105610508940895E894BB2766275F
S11312707727CB0197F908950E94C70808F48FEFE8
S113128008950E9454090C9402090E94F40838F04D
S11312900E94FB0820F0952311F00C94EB080C94A9
S11312A0F10811240C9436090E94130970F3959FD8
S11312B0C1F3950F50E0551F629FF001729FBB2749
S11312C0F00DB11D639FAA27F00DB11DAA1F649FE5
S11312D06627B00DA11D661F829F2227B00DA11D98
S11312E0621F739FB00DA11D621F839FA00D611D1E
S11312F0221F749F3327A00D611D231F849F600D3F
S1131300211D822F762F6A2F11249F5750409AF067
S1131310F1F088234AF0EE0FFF1FBB1F661F771FF3
S1131320881F91505040A9F79E3F510580F00C94BE
S1131330EB080C9436095F3FE4F3983ED4F38695AA
S113134077956795B795F795E7959F5FC1F7FE2B5E
S1131350880F911D9695879597F90895A0E1B0E0BF
S1131360E4EBF9E00C94530D7C011B016A01FC01D0
S113137017821682838181FF44C39E012F5F3F4FF2
S11313803901F7019381F10193FD859193FF8191D7
S11313901F01882309F431C3853239F493FD859103
S11313A093FF81911F01853239F4B70190E00E94C7
S11313B0780E56016501E5CF10E0512C912CFFE128
S11313C0F915D8F08B3279F038F4803279F0833221
S11313D0A1F4F92DF0612EC08D3261F0803369F4EF
S11313E0292D21602DC0392D3260932E892D8460E2
S11313F0982E2AC0E92DE86015C097FC2DC020ED79
S1131400280F2A3088F496FE06C03AE0139F200D78
S11314101124122F19C08AE0589E200D1124522E37
S1131420E92DE0629E2E10C08E3231F496FCE5C2A6
S1131430F92DF0649F2E08C08C3621F4292D2068E4
S1131440922E02C0883641F4F10193FD859193FFF9
S113145081911F018111B3CF9BEB980F933020F43E
S1131460992D9061805E07C09BE9980F933008F036
S113147066C1992D9F7E96FF16E09F73992E85363F
S113148019F49064992E08C0863621F4392F3068F7
S1131490932E02C01111115097FE07C01C3350F453
S11314A044244394410E27E00BC0183038F027E061
S11314B017E005C027E09CE3492E02C0212F412CF0
S11314C0560184E0A80EB11CF6016081718182810D
S11314D09381042DA3010E948A0D6C01F981FC877C
S11314E0F0FF02C0F3FF06C091FC06C092FE06C0E6
S11314F000E205C00DE203C00BE201C000E08C85F0
S11315008C7019F001115AC29BC297FE10C04C0C8A
S1131510FC85F4FF04C08A81813309F44A941414CD
S113152074F528E0241578F588E0482E2CC096FC44
S11315302AC0812F90E08C159D059CF03CEFC316CA
S11315403FEFD30674F0892D8068982E0AC0E2E03C
S1131550F0E0EC0FFD1FE10FF11D8081803319F4E1
S113156011501111F4CF97FE0EC044244394410E40
S1131570812F90E0C816D9062CF41C1904C0442409
S1131580439401C010E097FE06C01C141D0434F4FB
S1131590C601019605C085E090E002C081E090E0BC
S11315A001110196112331F0212F30E02F5F3F4FBD
S11315B0820F931F252D30E08217930714F4581AD5
S11315C001C0512C892D897049F4552039F0B70197
S11315D080E290E00E94780E5A94F7CF002329F01D
S11315E0B701802F90E00E94780E93FC09C055202B
S11315F039F0B70180E390E00E94780E5A94F7CF57
S113160097FE4CC04601D7FE02C0812C912CC60126
S113161088199909F301E80FF91FFE87ED879601F0
S113162024193109388B2F87012F10E0119501956A
S113163011093FEF8316930629F4B7018EE290E077
S11316400E94780EC814D9044CF08F8598898815A7
S1131650990524F4ED85FE85818101C080E3F1E0E4
S11316608F1A91082D853E852F5F3F4F3E872D872A
S1131670801691062CF0B70190E00E94780ED9CF25
S1131680C814D90441F49A81963320F4953319F49B
S11316903C8534FF81E3B70190E04EC08A818133F9
S11316A019F09C859F7E9C87B70190E00E94780E7C
S11316B0111105C094FC18C085E690E017C0B7016D
S11316C08EE290E00E94780E1E5F82E001E0080F37
S11316D0F301E80FF11D8081B70190E00E94780EBC
S11316E0802F0113F3CFE6CF85E490E0B7010E9489
S11316F0780ED7FC06C0C114D10441F4EC85E4FF94
S113170005C0D194C194D1088DE201C08BE2B70128
S113171090E00E94780E80E32AE0C216D1042CF0F7
S11317208F5FFAE0CF1AD108F7CFB70190E00E949B
S1131730780EB701C601C0960E94780E54C1833654
S113174031F0833779F0833509F056C020C0560153
S113175032E0A30EB11CF6018081898301E010E020
S1131760630112C05601F2E0AF0EB11CF601C08055
S1131770D18096FE03C0612F70E002C06FEF7FEF4F
S1131780C6010E946D0E8C01F92DFF7714C056011D
S113179022E0A20EB11CF601C080D18096FE03C0E7
S11317A0612F70E002C06FEF7FEFC6010E94620EEE
S11317B08C01F92DF0689F2EF3FD1AC0852D90E061
S11317C008171907A8F4B70180E290E00E94780E88
S11317D05A94F4CFF60197FC859197FE81916F019D
S11317E0B70190E00E94780E51105A9401501109EB
S11317F00115110579F7F7C0843611F0893661F5C2
S1131800560197FE09C024E0A20EB11CF6016081C6
S11318107181828193810AC0F2E0AF0EB11CF6019E
S113182060817181072E000C880B990BF92DFF76CE
S11318309F2E97FF09C090958095709561957F4F75
S11318408F4F9F4FF0689F2E2AE030E0A3010E9443
S1131850BD0EC82EC6183FC0092D853721F40F7E52
S11318602AE030E01DC0097F8F3691F018F48835E6
S113187059F0C3C0803719F0883711F0BEC0006139
S113188004FF09C0046007C094FE08C0066006C0D7
S113189028E030E005C020E130E002C020E132E081
S11318A0560107FF09C084E0A80EB11CF60160814F
S11318B071818281938108C0F2E0AF0EB11CF60100
S11318C06081718180E090E0A3010E94BD0EC82E6A
S11318D0C6180F77902E96FE0BC0092D0E7FC116E9
S11318E050F494FE0AC092FC08C0092D0E7E05C077
S11318F0DC2C092D03C0DC2C01C0D12E04FF0DC04B
S1131900FE01EC0DF11D8081803311F4097E09C0C4
S113191002FF06C0D394D39404C0802F867809F0C4
S1131920D39403FD11C000FF06C01C2DD51480F410
S1131930150D1D190DC0D51458F4B70180E290E0BF
S11319400E94780ED394F7CFD51410F45D1801C01B
S1131950512C04FF10C0B70180E390E00E94780E80
S113196002FF17C001FD03C088E790E002C088E5CC
S113197090E0B7010CC0802F867859F001FF02C0B7
S11319808BE201C080E207FD8DE2B70190E00E9486
S1131990780EC11638F4B70180E390E00E94780E07
S11319A01150F7CFCA94F301EC0DF11D8081B701FA
S11319B090E00E94780EC110F5CF15C0F4E0F51543
S11319C060F584E0581A93FE1FC0011127C02C85CE
S11319D023FF2AC008E710E0392D3071932EF80157
S11319E08491811124C0552009F4E4CCB70180E22C
S11319F090E00E94780E5A94F6CFF7018681978181
S1131A0026C08FEF9FEF23C0B70180E290E00E94D1
S1131A10780E5A945110F8CFD8CF512CB701802F9B
S1131A2090E00E94780ED3CF0CE710E0D5CF911050
S1131A308052B70190E00E94780E0F5F1F4FCFCF06
S1131A4023E0251510F483E0BDCF512CC0CF609660
S1131A50E2E10C946F0DA1E21A2EAA1BBB1BFD013F
S1131A600DC0AA1FBB1FEE1FFF1FA217B307E40779
S1131A70F50720F0A21BB30BE40BF50B661F771FD1
S1131A80881F991F1A9469F76095709580959095B1
S1131A909B01AC01BD01CF010895EE0FFF1F05901E
S1131AA0F491E02D09942F923F924F925F926F929E
S1131AB07F928F929F92AF92BF92CF92DF92EF92DA
S1131AC0FF920F931F93CF93DF93CDB7DEB7CA1B5B
S1131AD0DB0B0FB6F894DEBF0FBECDBF09942A8886
S1131AE0398848885F846E847D848C849B84AA842E
S1131AF0B984C884DF80EE80FD800C811B81AA81BB
S1131B00B981CE0FD11D0FB6F894DEBF0FBECDBF85
S1131B10ED010895283008F027E03327DA01990F02
S1131B20311D87FD916000966105710539F43260BD
S1131B302E5F3D9330E32A95E1F708959F3F30F0FF
S1131B4080387105610509F03C5F3C5F3D9391303D
S1131B5008F08068911DDF93CF931F930F93FF923A
S1131B60EF92192F987F9695E92F96959695E90F00
S1131B70FF27E652FF4F99273327EE24FF24A701BE
S1131B80E70105900894079428F4360FE71EF81E21
S1131B90491F511D660F771F881F991F0694A1F7CF
S1131BA00590079428F4E70EF81E491F561FC11D1F
S1131BB0770F881F991F661F0694A1F70590079455
S1131BC028F4F80E491F561FC71FD11D880F991FEF
S1131BD0661F771F0694A1F70590079420F4490F18
S1131BE0561FC71FD81F990F661F771F881F06949B
S1131BF0A9F784911095177041F0D695C79557951C
S1131C004795F794E7941A95C1F7E0E8F0E06894F3
S1131C101590159135916591959105907FE2739595
S1131C20E118F10A430B560BC90BD009C0F7E10CBC
S1131C30F11E431F561FC91FD01D7EF4703311F4CB
S1131C408A95E6CFE894015030F0080F0AF4002793
S1131C50021708F4202F2395022F7A3328F079E312
S1131C607D932A95E9F710C07D932A9589F6069409
S1131C7097956795379517951794E118F10A430BD3
S1131C80560BC90BD00998F023957E9173957A333E
S1131C9008F070E37C932013B8F77E9170617D9314
S1131CA030F0839571E37D9370E32A95E1F7112475
S1131CB0EF90FF900F911F91CF91DF91992787FDAE
S1131CC090950895FC010590615070400110D8F77B
S1131CD0809590958E0F9F1F0895FC016150704070
S1131CE001900110D8F7809590958E0F9F1F08954D
S1131CF00F931F93CF93DF93FB01238121FD03C037
S1131D008FEF9FEF2CC022FF16C04681578124819C
S1131D1035814217530744F4A081B1819D012F5F9F
S1131D203F4F318320838C93268137812F5F3F4F30
S1131D303783268314C08B01EC01FB010084F185F9
S1131D40E02D0995892BE1F6D80116968D919C9189
S1131D501797019617969C938E931697CE01DF9151
S1131D60CF911F910F910895AB01BC0180912E0179
S1131D7090912F010E94AE090895FA01AA272830F4
S1131D8051F1203181F1E8946F936E7F6E5F7F4F44
S1131D908F4F9F4FAF4FB1E03ED0B4E03CD0670FC0
S1131DA0781F891F9A1FA11D680F791F8A1F911D13
S1131DB0A11D6A0F711D811D911DA11D20D009F463
S1131DC068943F912AE0269F11243019305D3193A5
S1131DD0DEF6CF010895462F4770405D4193B3E08E
S1131DE00FD0C9F7F6CF462F4F70405D4A3318F035
S1131DF0495D31FD4052419302D0A9F7EACFB4E0E6
S1131E00A6959795879577956795BA95C9F700979D
S1131E106105710508959B01AC010A2E069457953E
S1131E20479537952795BA95C9F7620F731F841F95
S10D1E30951FA01D0895F894FFCF3C
S1131E3A0A0A33323820557021204368617261637B
S1131E4A746572732077696C6C206563686F2E0AF7
S1051E5A000082
S9030000FC
