S01B0000417276656E53656E736F72436F6E74726F6C732E737265633F
S11300000C943C000C9459000C9459000C94590025
S11300100C9459000C9424070C9459000C94590026
S11300200C9459000C9459000C9459000C94EA0651
S11300300C9459000C9459000C9459000C945900D8
S11300400C9459000C9459000C9459000C945900C8
S11300500C9459000C9459000C9459000C945900B8
S11300600C9459000C9459009B00A500AF00B900F2
S1130070C300CD00D700E10011241FBECFEFD8E0AC
S1130080DEBFCDBF11E0A0E0B1E0E2E6F8E102C0DE
S113009005900D92A432B107D9F721E0A4E2B1E0B2
S11300A001C01D92AE32B207E1F70E9479060C94AA
S11300B02F0C0C940000CF93DF931F92CDB7DEB7C3
S11300C0898384E690E024E630E0F90120812E7FE4
S11300D0FC0120838CE790E0FC0110828BE790E028
S11300E0FC01108289810E947F008AE790E027EE5C
S11300F0FC01208300000F90DF91CF910895CF93EE
S1130100DF931F92CDB7DEB789838981882F90E072
S1130110092E000CAA0BBB0B40E050E027E030E0B6
S1130120841B950B2817390708F455C08C5C9F4F26
S1130130FC010C943F098EE790E02EE730E0F901D2
S113014020812160FC0120834AC08EE790E02EE7E5
S113015030E0F90120812260FC01208340C08EE759
S113016090E02EE730E0F90120812460FC01208337
S113017036C08EE790E02EE730E0F9012081286058
S1130180FC0120832CC08EE790E02EE730E0F901DB
S113019020812061FC01208322C08EE790E02EE7BD
S11301A030E0F90120812062FC01208318C08EE731
S11301B090E02EE730E0F90120812064FC012083E7
S11301C00EC08EE790E02EE730E0F9012081206830
S11301D0FC01208304C08EE790E0FC0110828CE7D0
S11301E090E02CE730E0F9012081207FFC0120839E
S11301F08CE790E02CE730E0F90130812981232B52
S1130200FC01208300000F90DF91CF9108950F939C
S11302101F93CF93DF93CDB7DEB72C970FB6F89427
S1130220DEBF0FBECDBF6B837C838D839E832F8304
S1130230388749875A871C870B878B819C81AD81BE
S1130240BE81880F991FAA1FBB1F9C01AD01220FFD
S1130250331F441F551F220F331F441F551F820F86
S1130260931FA41FB51F689413F8B695A795979587
S113027087951694D1F72F81388549855A85BC0115
S1130280CD010E941D09DA01C9010596A11DB11D08
S11302902AE030E040E050E0BC01CD010E941D099D
S11302A0DA01C90101979A83898389819A81811529
S11302B0904118F08FEF9FEF2FC084E690E024E682
S11302C030E0F90120812D7FFC01208385EC90E052
S11302D029813A81232F3327FC01208384EC90E089
S11302E02981FC01208381EC90E028E1FC0120833A
S11302F082EC90E026E0FC0120838B859C85892B91
S113030049F081EC90E021EC30E0F9012081206893
S1130310FC01208380E090E02C960FB6F894DEBFB9
S11303200FBECDBFDF91CF911F910F910895CF9351
S1130330DF931F92CDB7DEB78983000080EC90E095
S1130340FC018081882F90E080729927892BB1F37A
S113035080EC90E0FC018081882F90E080749927E4
S1130360892B29F080EC90E020E4FC01208386ECCA
S113037090E02981FC01208300000F90DF91CF9150
S11303800895CF93DF9300D0CDB7DEB79A838983E6
S11303900BC089819A81FC0180810E949701898127
S11303A09A8101969A83898389819A81FC0180814B
S11303B0882379F700000F900F90DF91CF91089573
S11303C0CF93DF9300D01F92CDB7DEB789837B83B1
S11303D06A8384E690E024E630E0F9012081277FF7
S11303E0FC01208381E890E0FC01108281E890E028
S11303F021E830E0F90130812981232BFC0120839D
S113040088E890E024E830E0F901408151812A81B4
S11304103B81240F351FFC01318320838FE690E05C
S113042022E0FC01208300000F900F900F90DF91D9
S1130430CF910895CF93DF93CDB7DEB780E00E94CC
S11304405B000000DF91CF910895CF93DF931F925B
S1130450CDB7DEB789838981882F90E081309105FB
S113046061F18230910509F44CC0892B09F06EC00A
S11304708AE290E02AE230E0F90120812062FC0166
S113048020838AE290E02AE230E0F90120812F7B88
S1130490FC0120838DE690E02DE630E0F901208117
S11304A02064FC01208388E690E028E630E0F9012E
S11304B020812460FC01208349C08AE290E02AE282
S11304C030E0F90120812760FC01208384E290E080
S11304D024E230E0F9012081FC0120838BE690E0E6
S11304E02BE630E0F90120812160FC01208388E6BD
S11304F090E028E630E0F90120812160FC012083AE
S113050025C084E290E024E230E0F90120812160FA
S1130510FC01208384E290E024E230E0F9012081B0
S11305202D7FFC0120838BE690E02BE630E0F9017F
S113053020812460FC01208388E690E028E630E0F6
S1130540F90120812160FC012083000000000F904C
S1130550DF91CF9108951F93CF93DF93CDB7DEB78B
S113056029970FB6F894DEBF0FBECDBF8D834E839F
S11305705F83688779878D810E94DE02DC01CB016D
S113058089839A83AB83BC8311E02E813F814885A4
S1130590598569817A818B819C810E9453078823C4
S11305A00CF010E0812F90E029960FB6F894DEBF8E
S11305B00FBECDBFDF91CF911F910895CF93DF93ED
S11305C0CDB7DEB76D970FB6F894DEBF0FBECDBFC3
S11305D08D8F1D821E821F82188619821A821B82A9
S11305E01C82109226011092270110922801109269
S11305F0290110922A0110922B0110922C011092C1
S11306002D018D8D882F90E08130910509F446C02D
S11306108230910509F45FC0892B09F079C085E027
S113062090E00E94CF0386E090E00E94F105DC0197
S1130630CB018D839E83AF83B8878D819E81AF81EB
S1130640B885BC01CD010E943C06DC01CB01898345
S11306509A83AB83BC838C818F938B818F938A81A4
S11306608F9389818F9380E091E0892F8F9380E02D
S113067091E08F93CE010996292F2F938F930E9497
S113068045098DB79EB708960FB6F894DEBF0FBE26
S1130690CDBFCE0109960E94C1013AC087E090E027
S11306A00E94CF0380E090E00E94F105DC01CB01C1
S11306B08D839E83AF83B8878D819E81AF81B885FA
S11306C0BC01CD010E943C06DC01CB0189839A83E5
S11306D0AB83BC831DC081E090E00E94CF0382E025
S11306E090E00E94F105DC01CB018D839E83AF83F2
S11306F0B8878D819E81AF81B885BC01CD010E94F0
S11307003C06DC01CB0189839A83AB83BC83000064
S113071089819A81AB81BC81BC01CD016D960FB6F4
S1130720F894DEBF0FBECDBFDF91CF910895CF9374
S1130730DF9300D0CDB7DEB79A83898389E290E056
S1130740FC018081882F90E080749927892B89F09F
S113075086E490E0FC018081882F90E0A0E0B0E086
S11307608093260190932701A0932801B093290137
S113077010C086E490E0FC018081882F90E0A0E026
S1130780B0E080932A0190932B01A0932C01B093A5
S11307902D0100000F900F90DF91CF910895CF931A
S11307A0DF93CDB7DEB7C254D1090FB6F894DEBFDC
S11307B00FBECDBF9E012F5B3F4FF9019183808314
S11307C08BE290E02BE230E0F90120812F7DFC01E7
S11307D0208380E090E0A0E0B0E489839A83AB8337
S11307E0BC832BEA3AEA4AE25FE369817A818B812E
S11307F09C810E94B008DC01CB018DA39EA3AFA312
S1130800B8A720E030E040E05FE369817A818B8122
S11308109C810E94B008DC01CB0189A79AA7ABA7F1
S1130820BCA720E030E040E85FE36DA17EA18FA18A
S113083098A50E94530788231CF481E08DA7B2C0B9
S113084020E03FEF4FE757E469A57AA58BA59CA567
S11308500E94AB0818160CF07BC020E030E04AE799
S113086054E469817A818B819C810E945807DC0160
S1130870CB018EA79FA7A8ABB9AB20E030E04AEF2D
S113088053E46EA57FA588A999A90E94B008DC014C
S1130890CB018AAB9BABACABBDAB20E030E040E816
S11308A05FE36AA97BA98CA99DA90E9453078823A9
S11308B02CF481E090E09FAB8EAB3FC020E03FEF93
S11308C04FE757E46AA97BA98CA99DA90E94AB08AC
S11308D018164CF520E030E040E251E46EA57FA507
S11308E088A999A90E94B008DC01CB01BC01CD0103
S11308F00E94CA07DC01CB019FAB8EAB0FC082E321
S113090090E099AF88AF88AD99AD0197F1F799AFB1
S113091088AF8EA99FA901979FAB8EAB8EA99FA983
S1130920892B69F73FC06AA97BA98CA99DA90E945C
S1130930CA07DC01CB019FAB8EAB8EA99FA99BAFED
S11309408AAF8AAD9BAD0197F1F79BAF8AAF2AC0FE
S113095020E030E04FE753E46DA17EA18FA198A57C
S11309600E94AB081816ACF469A57AA58BA59CA5C2
S11309700E94CA07DC01CB019DAF8CAF8CAD9DAD4D
S11309809FAF8EAF8EAD9FAD0197F1F79FAF8EAF46
S11309901CC06DA17EA18FA198A50E94CA07DC018D
S11309A0CB018DA72DA5CE01805C9F4FFC01208338
S11309B0CE01805C9F4FFC018081282F2A95F1F79E
S11309C0CE01805C9F4FFC0120838BE290E02BE200
S11309D030E0F90120812062FC01208380E090E076
S11309E0A0E2B1E48D839E83AF83B8872BEA3AEA11
S11309F04AE25FE36D817E818F8198850E94B00811
S1130A00DC01CB0189879A87AB87BC8720E030E083
S1130A1040E05FE36D817E818F8198850E94B008FC
S1130A20DC01CB018D879E87AF87B88B20E030E057
S1130A3040E85FE369857A858B859C850E9453072E
S1130A4088231CF481E0898BB2C020E03FEF4FE79C
S1130A5057E46D857E858F8598890E94AB081816AA
S1130A600CF07BC020E030E04AE754E46D817E81E5
S1130A708F8198850E945807DC01CB018A8B9B8B60
S1130A80AC8BBD8B20E030E04AEF53E46A897B896C
S1130A908C899D890E94B008DC01CB018E8B9F8BD1
S1130AA0A88FB98F20E030E040E85FE36E897F894A
S1130AB0888D998D0E94530788232CF481E090E05F
S1130AC09B8F8A8F3FC020E03FEF4FE757E46E894A
S1130AD07F89888D998D0E94AB0818164CF520E00B
S1130AE030E040E251E46A897B898C899D890E94C7
S1130AF0B008DC01CB01BC01CD010E94CA07DC01B6
S1130B00CB019B8F8A8F0FC082E390E09D8F8C8FE7
S1130B108C8D9D8D0197F1F79D8F8C8F8A8D9B8D88
S1130B2001979B8F8A8F8A8D9B8D892B69F73FC094
S1130B306E897F89888D998D0E94CA07DC01CB015B
S1130B409B8F8A8F8A8D9B8D9F8F8E8F8E8D9F8D8D
S1130B500197F1F79F8F8E8F2AC020E030E04FE796
S1130B6053E469857A858B859C850E94AB081816A9
S1130B70ACF46D857E858F8598890E94CA07DC0157
S1130B80CB0199A388A388A199A19BA38AA38AA135
S1130B909BA10197F1F79BA38AA30FC069857A856E
S1130BA08B859C850E94CA07DC01CB01898B8989CE
S1130BB08CA38CA18A95F1F78CA38BE290E02BE2B5
S1130BC030E0F90120812F7DFC0120830000CE5B01
S1130BD0DF4F0FB6F894DEBF0FBECDBFDF91CF91CC
S1130BE00895EF92FF920F931F93CF93DF9300D05A
S1130BF000D000D0CDB7DEB79E838D8319821A82D0
S1130C001B821C82000089E290E0FC018081882F15
S1130C1090E080749927892BB1F720912A013091B3
S1130C202B0140912C0150912D018091260190912E
S1130C302701A0912801B091290179018A01E81ABC
S1130C40F90A0A0B1B0BD801C70189839A83AB836A
S1130C50BC8389819A81AB81BC81BC01CD0126967C
S1130C600FB6F894DEBF0FBECDBFDF91CF911F91B9
S1130C700F91FF90EF900895CF93DF93CDB7DEB738
S1130C8028970FB6F894DEBF0FBECDBF6D837E8369
S1130C908F83988788E29EE7ACE0BDE389839A83DB
S1130CA0AB83BC836D817E818F8198850E94FB0715
S1130CB0DC01CB0129813A814B815C81BC01CD01EE
S1130CC00E94B008DC01CB0120E030E040E050E4B9
S1130CD0BC01CD010E945807DC01CB01BC01CD0150
S1130CE028960FB6F894DEBF0FBECDBFDF91CF912B
S1130CF008950F931F93CF93DF9300D000D0CDB707
S1130D00DEB784EF91E09C838B838B819C819A83F3
S1130D1089838AEF90E0BC0182E00E94E00183E5D0
S1130D2090E023E530E0F90120812160FC0120837B
S1130D3001E010E020E835E240E050E060E874E8CB
S1130D408EE190E00E94070183E091E00E94C101DE
S1130D500E941A0280E00E942502789487E290E0C3
S1130D6027E230E0F90120812460FC01208340E087
S1130D7050E060E271E480E00E94AB02892B51F004
S1130D8088E290E028E230E0F90120812460FC014F
S1130D90208309C088E290E028E230E0F901208154
S1130DA02B7FFC012083889580912401909125015B
S1130DB029813A81281B390B8B819C8182179307E7
S1130DC0B0F629813A818B819C81820F931F9A838B
S1130DD08983CDCF1F920F9200905F000F92112450
S1130DE02F933F934F935F938F939F93EF93FF932F
S1130DF0CF93DF93CDB7DEB788E890E028E830E002
S1130E00F901408151812AEF30E0240F351FFC01A4
S1130E103183208380912401909125010196909340
S1130E202501809324010000DF91CF91FF91EF9180
S1130E309F918F915F914F913F912F910F900092CD
S1130E405F000F901F9018951F920F9200905F0003
S1130E500F9211242F933F934F935F936F937F933C
S1130E608F939F93AF93BF93EF93FF93CF93DF93AE
S1130E70CDB7DEB787E090E00E9497030000DF91D2
S1130E80CF91FF91EF91BF91AF919F918F917F91FE
S1130E906F915F914F913F912F910F9000925F005E
S1130EA00F901F9018950E94360808F481E0089569
S1130EB00E946C070C9471080E946A0858F00E9402
S1130EC0630840F029F45F3F29F00C945A0851114B
S1130ED00C94A5080C9460080E94820868F3992376
S1130EE0B1F3552391F3951B550BBB27AA27621722
S1130EF07307840738F09F5F5F4F220F331F441F2F
S1130F00AA1FA9F335D00E2E3AF0E0E832D0915062
S1130F105040E695001CCAF72BD0FE2F29D0660F4F
S1130F20771F881FBB1F261737074807AB07B0E892
S1130F3009F0BB0B802DBF01FF2793585F4F3AF098
S1130F409E3F510578F00C945A080C94A5085F3F15
S1130F50E4F3983ED4F3869577956795B795F7951E
S1130F609F5FC9F7880F911D9695879597F9089506
S1130F70E1E0660F771F881FBB1F621773078407A2
S1130F80BA0720F0621B730B840BBA0BEE1F88F7B1
S1130F90E09508950E948A0888F09F5798F0B92F29
S1130FA09927B751B0F0E1F0660F771F881F991F9A
S1130FB01AF0BA95C9F714C0B13091F00E94A40890
S1130FC0B1E008950C94A408672F782F8827B85FA0
S1130FD039F0B93FCCF3869577956795B395D9F7F2
S1130FE03EF490958095709561957F4F8F4F9F4FFC
S1130FF00895E89409C097FB3EF490958095709508
S113100061957F4F8F4F9F4F9923A9F0F92F96E950
S1131010BB279395F695879577956795B795F111C5
S1131020F8CFFAF4BB0F11F460FF1BC06F5F7F4F62
S11310308F4F9F4F16C0882311F096E911C0772374
S113104021F09EE8872F762F05C0662371F096E87D
S1131050862F70E060E02AF09A95660F771F881F4C
S1131060DAF7880F9695879597F90895990F0008F0
S1131070550FAA0BE0E8FEEF16161706E807F90766
S1131080C0F012161306E407F50798F0621B730B01
S1131090840B950B39F40A2661F0232B242B252B82
S11310A021F408950A2609F4A140A6958FEF811D25
S11310B0811D089597F99F6780E870E060E00895C6
S11310C09FEF80EC089500240A941616170618065C
S11310D00906089500240A94121613061406050638
S11310E00895092E0394000C11F4882352F0BB0FC9
S11310F040F4BF2B11F460FF04C06F5F7F4F8F4F2C
S11311009F4F089557FD9058440F551F59F05F3F66
S113111071F04795880F97FB991F61F09F3F79F015
S113112087950895121613061406551FF2CF469597
S1131130F1DF08C0161617061806991FF1CF869519
S11311407105610508940895E894BB2766277727FD
S1131150CB0197F908950E94360808F48FEF08959B
S11311600E94C3080C9471080E94630838F00E941E
S11311706A0820F0952311F00C945A080C94600826
S113118011240C94A5080E94820870F3959FC1F362
S1131190950F50E0551F629FF001729FBB27F00D21
S11311A0B11D639FAA27F00DB11DAA1F649F662776
S11311B0B00DA11D661F829F2227B00DA11D621FC5
S11311C0739FB00DA11D621F839FA00D611D221F7F
S11311D0749F3327A00D611D231F849F600D211D63
S11311E0822F762F6A2F11249F5750409AF0F1F0E6
S11311F088234AF0EE0FFF1FBB1F661F771F881F4F
S113120091505040A9F79E3F510580F00C945A0824
S11312100C94A5085F3FE4F3983ED4F38695779544
S11312206795B795F795E7959F5FC1F7FE2B880FF4
S1131230911D9695879597F90895A1E21A2EAA1BF8
S1131240BB1BFD010DC0AA1FBB1FEE1FFF1FA21772
S1131250B307E407F50720F0A21BB30BE40BF50B6F
S1131260661F771F881F991F1A9469F760957095F8
S1131270809590959B01AC01BD01CF010895EE0FBF
S1131280FF1F0590F491E02D0994AEE0B0E0EBE48B
S1131290F9E00C94060C0D891E8986E08C831A8370
S11312A009838FEF9FE79E838D83AE01475E5F4F77
S11312B06F89788DCE0101960E946709EF81F885C8
S11312C0E00FF11F10822E96E4E00C94220CABE0A8
S11312D0B0E0EDE6F9E00C94F80B6C017B018A01B7
S11312E0FC0117821682838181FFCCC1CE01019655
S11312F03C01F6019381F70193FD859193FF819160
S11313007F01882309F4BAC1853239F493FD8591AC
S113131093FF81917F01853229F4B60190E00E9408
S11313205E0BE7CF912C212C312CFFE1F315D8F083
S11313308B3279F038F4803279F08332A1F4232DA2
S113134020611DC08D3261F0803369F4232D21604A
S113135016C0832D8260382EE32DE4603E2E2AC011
S1131360F32DF8601DC037FC2DC020ED280F2A3066
S113137040F08E32B9F436FC81C1232D2064322E24
S113138019C036FE06C08AE0989E200D1124922EC4
S113139011C0EAE02E9E200D1124222EF32DF062BE
S11313A03F2E08C08C3621F4832D8068382E02C06D
S11313B0883641F4F70193FD859193FF81917F0174
S11313C08111B3CF982F9F7D9554933028F40C5FEF
S11313D01F4F9FE399830DC0833631F0833771F03B
S11313E0833509F059C021C0F801808189830E5FDB
S11313F01F4F88248394912C530113C02801F2E0D9
S11314004F0E511CF801A080B18036FE03C0692D37
S113141070E002C06FEF7FEFC5010E94530B4C01D7
S11314208201F32DFF773F2E16C0280122E0420EE1
S1131430511CF801A080B18036FE03C0692D70E014
S113144002C06FEF7FEFC5010E94480B4C01F32DE2
S1131450F0683F2E820133FC1BC0822D90E0881679
S11314609906B0F4B60180E290E00E945E0B2A94E3
S1131470F4CFF50137FC859137FE81915F01B60108
S113148090E00E945E0B21102A9421E0821A9108B8
S11314908114910471F7E8C0843611F0893641F55E
S11314A0F80137FE07C060817181828193810C5FEE
S11314B01F4F08C060817181072E000C880B990BA7
S11314C00E5F1F4FF32DFF763F2E97FF09C09095B7
S11314D08095709561957F4F8F4F9F4FF0683F2E99
S11314E02AE030E0A3010E949A0B882E861845C09A
S11314F0853731F4232D2F7EB22E2AE030E025C02B
S1131500932D997FB92E8F36C1F018F4883579F070
S1131510B5C0803719F0883721F0B0C0E92FE061F9
S1131520BE2EB4FE0DC0FB2DF460BF2E09C034FEE8
S11315300AC0292F2660B22E06C028E030E005C07C
S113154020E130E002C020E132E0F801B7FE07C03C
S113155060817181828193810C5F1F4F06C060811D
S1131560718180E090E00E5F1F4FA3010E949A0BEF
S1131570882E8618FB2DFF773F2E36FE0DC0232DB7
S11315802E7FA22E891458F434FE0BC032FC09C0FD
S1131590832D8E7EA82E05C0B82CA32C03C0B82C96
S11315A001C0B92CA4FE0FC0FE01E80DF11D80811D
S11315B0803321F49A2D997EA92E09C0A2FE06C07B
S11315C0B394B39404C08A2D867809F0B394A3FC31
S11315D011C0A0FE06C0B21488F4280C922C9B18EB
S11315E00EC0B21460F4B60180E290E00E945E0B7B
S11315F0B394F7CFB21418F42B1802C0982C212CF2
S1131600A4FE10C0B60180E390E00E945E0BA2FE2F
S113161017C0A1FC03C088E790E002C088E590E011
S1131620B6010CC08A2D867859F0A1FE02C08BE267
S113163001C080E2A7FC8DE2B60190E00E945E0B3F
S1131640891438F4B60180E390E00E945E0B9A940A
S1131650F7CF8A94F301E80DF11D8081B60190E083
S11316600E945E0B8110F5CF222009F442CEB60110
S113167080E290E00E945E0B2A94F6CFF601868108
S1131680978102C08FEF9FEF2B96E2E10C94140C2C
S1131690FC010590615070400110D8F78095909539
S11316A08E0F9F1F0895FC0161507040019001103E
S11316B0D8F7809590958E0F9F1F08950F931F93D1
S11316C0CF93DF93FB01238121FD03C08FEF9FEFB5
S11316D02CC022FF16C046815781248135814217D0
S11316E0530744F4A081B1819D012F5F3F4F3183A3
S11316F020838C93268137812F5F3F4F3783268346
S113170014C08B01EC01FB010084F185E02D0995E7
S1131710892BE1F6D80116968D919C911797019625
S113172017969C938E931697CE01DF91CF911F91BC
S11317300F910895FA01AA27283051F1203181F13F
S1131740E8946F936E7F6E5F7F4F8F4F9F4FAF4FC5
S1131750B1E03ED0B4E03CD0670F781F891F9A1FD8
S1131760A11D680F791F8A1F911DA11D6A0F711D8C
S1131770811D911DA11D20D009F468943F912AE098
S1131780269F11243019305D3193DEF6CF01089580
S1131790462F4770405D4193B3E00FD0C9F7F6CFB1
S11317A0462F4F70405D4A3318F0495D31FD405279
S11317B0419302D0A9F7EACFB4E0A695979587950F
S11317C077956795BA95C9F70097610571050895EE
S11317D09B01AC010A2E069457954795379527959A
S11317E0BA95C9F7620F731F841F951FA01D089532
S11317F02F923F924F925F926F927F928F929F921D
S1131800AF92BF92CF92DF92EF92FF920F931F930A
S1131810CF93DF93CDB7DEB7CA1BDB0B0FB6F894BB
S1131820DEBF0FBECDBF09942A88398848885F84FB
S11318306E847D848C849B84AA84B984C884DF806C
S1131840EE80FD800C811B81AA81B981CE0FD11D50
S11318500FB6F894DEBF0FBECDBFED010895F89426
S1051860FFCFB4
S11318622566000A3332382055702120436861729C
S11318726163746572732077696C6C206563686F49
S10718822E0A000026
S9030000FC
