S01B0000417276656E53656E736F72436F6E74726F6C732E737265633F
S11300000C943C000C9459000C9459000C94590025
S11300100C9459000C9459000C9459000C945900F8
S11300200C9459000C9459000C9459000C94DD0163
S11300300C9459000C9459000C9459000C945900D8
S11300400C9459000C9459000C9459000C945900C8
S11300500C9459000C9459000C9459000C945900B8
S11300600C9459000C94590065006B0071007700E2
S11300707D00830089008F0011241FBECFEFD8E0DC
S1130080DEBFCDBF11E0A0E0B1E0E0E7FCE002C0DC
S113009005900D92AE33B107D9F721E0AEE3B1E09C
S11300A001C01D92A034B207E1F70E9440010C94F4
S11300B036060C940000482F50E048305105A8F54E
S11300C0FA01EC5CFF4F0C944603EEE7F0E09081FC
S11300D0916090832CC0EEE7F0E090819260908371
S11300E026C0EEE7F0E090819460908320C0EEE7B4
S11300F0F0E09081986090831AC0EEE7F0E0908180
S11301009061908314C0EEE7F0E090819062908358
S11301100EC0EEE7F0E090819064908308C0EEE7B3
S1130120F0E090819068908302C010927E00ECE72A
S1130130F0E09081907F90839081892B8083089553
S1130140E4E6F0E090819E7F908310927C00109210
S11301507B000E945B0087EE80937A000895CF9223
S1130160DF92EF92FF920F931F936B017C01CC0CF3
S1130170DD1CEE1CFF1CD701C601880F991FAA1FA6
S1130180BB1F880F991FAA1FBB1F8C0D9D1DAE1D81
S1130190BF1DBC01CD01689413F89695879577959A
S11301A067951694D1F70E942403CA01B9016B5FC5
S11301B07F4F8F4F9F4F2AE030E040E050E00E9495
S11301C0240321503109211580E13807C8F4E4E6FD
S11301D0F0E080818D7F80833093C5002093C4003C
S11301E088E18093C10086E08093C200012B59F01E
S11301F0E1ECF0E080818068808380E090E005C0DD
S11302008FEF9FEF02C080E090E01F910F91FF906D
S1130210EF90DF90CF9008959091C00095FFFCCFB0
S11302209091C00096FF03C090E49093C000809327
S1130230C6000895CF93DF93EC0103C00E940C0124
S1130240219688818111FACFDF91CF910895E4E658
S1130250F0E09081977F9083E1E8F0E01082908154
S1130260892B80838091840090918500680F791F89
S1130270709389006093880082E080936F000895F2
S1130280CF93DF93CDB7DEB764970FB6F894DEBF94
S11302900FBECDBF6AEF70E082E00E94270183B7F2
S11302A0816083BF01E010E020E835E240E050E0E7
S11302B060E874E88EE190E00E94AF0080E091E095
S11302C00E941A0180E00E94A00078948AB180689C
S11302D08AB904EF11E0889580913E0190913F0125
S11302E09801281B390BC901853F9140A0F30C509C
S11302F01E4F809178006091790070E0762F662718
S11303007B01E80EF11CFF92EF9282E291E09F9351
S11303108F93CE0101966C019F938F930E944C039F
S1130320C6010E941A0180E48F939CE99F938F93E6
S11303301F928CE291E09F938F93DF92CF920E9461
S11303404C03C6010E941A01B70180E090E00E94AC
S1130350000220E030E040EA5BE30E94B7024B0178
S11303605C0120E030E04AE754E40E94B7029F9326
S11303708F937F936F9383E391E09F938F93DF92A7
S1130380CF920E944C03C6010E941A010FB6F89442
S1130390DEBF0FBECDBF20E030E040E450E4C50135
S11303A0B4010E94B202181624F48BB180688BB990
S11303B092CF8BB18F778BB98ECF1F920F920FB6DE
S11303C00F9211248F939F93EF93FF93E8E8F0E04B
S11303D08081918186509F4F9183808380913E01DB
S11303E090913F01019690933F0180933E01FF91CC
S11303F0EF919F918F910F900FBE0F901F901895C2
S1130400E89409C097FB3EF49095809570956195AA
S11304107F4F8F4F9F4F9923A9F0F92F96E9BB2760
S11304209395F695879577956795B795F111F8CFDC
S1130430FAF4BB0F11F460FF1BC06F5F7F4F8F4F47
S11304409F4F16C0882311F096E911C0772321F03D
S11304509EE8872F762F05C0662371F096E8862FD5
S113046070E060E02AF09A95660F771F881FDAF72C
S1130470880F9695879597F90895990F0008550F59
S1130480AA0BE0E8FEEF16161706E807F907C0F016
S113049012161306E407F50798F0621B730B840B1E
S11304A0950B39F40A2661F0232B242B252B21F4F8
S11304B008950A2609F4A140A6958FEF811D811D98
S11304C0089597F99F6780E870E060E008959FEFD2
S11304D080EC089500240A941616170618060906D7
S11304E0089500240A9412161306140605060895A6
S11304F0092E0394000C11F4882352F0BB0F40F42E
S1130500BF2B11F460FF04C06F5F7F4F8F4F9F4F6D
S1130510089557FD9058440F551F59F05F3F71F0EF
S11305204795880F97FB991F61F09F3F79F0879556
S11305300895121613061406551FF2CF4695F1DFDF
S113054008C0161617061806991FF1CF869571056F
S1130550610508940895E894BB2766277727CB01A3
S113056097F908950E943D0208F48FEF08950E94C0
S1130570CA020C9478020E946A0238F00E94710246
S113058020F0952311F00C9461020C94670211245D
S11305900C94AC020E94890270F3959FC1F3950FED
S11305A050E0551F629FF001729FBB27F00DB11DF3
S11305B0639FAA27F00DB11DAA1F649F6627B00D83
S11305C0A11D661F829F2227B00DA11D621F739F6C
S11305D0B00DA11D621F839FA00D611D221F749F7A
S11305E03327A00D611D231F849F600D211D822FC1
S11305F0762F6A2F11249F5750409AF0F1F08823E8
S11306004AF0EE0FFF1FBB1F661F771F881F915014
S11306105040A9F79E3F510580F00C9461020C9460
S1130620AC025F3FE4F3983ED4F3869577956795E3
S1130630B795F795E7959F5FC1F7FE2B880F911D3E
S11306409695879597F90895A1E21A2EAA1BBB1BCC
S1130650FD010DC0AA1FBB1FEE1FFF1FA217B3078A
S1130660E407F50720F0A21BB30BE40BF50B661FA0
S1130670771F881F991F1A9469F760957095809564
S113068090959B01AC01BD01CF010895EE0FFF1FB2
S11306900590F491E02D0994AEE0B0E0E2E5F3E0DA
S11306A00C940D060D891E8986E08C831A830983B8
S11306B08FEF9FE79E838D83AE01475E5F4F6F8907
S11306C0788DCE0101960E946E03EF81F885E00FCC
S11306D0F11F10822E96E4E00C942906ABE0B0E002
S11306E0E4E7F3E00C94FF056C017B018A01FC0153
S11306F017821682838181FFCCC1CE0101963C0111
S1130700F6019381F70193FD859193FF81917F0118
S1130710882309F4BAC1853239F493FD859193FF96
S113072081917F01853229F4B60190E00E9465052C
S1130730E7CF912C212C312CFFE1F315D8F08B322B
S113074079F038F4803279F08332A1F4232D2061DA
S11307501DC08D3261F0803369F4232D216016C0F1
S1130760832D8260382EE32DE4603E2E2AC0F32DC3
S1130770F8601DC037FC2DC020ED280F2A3040F052
S11307808E32B9F436FC81C1232D2064322E19C077
S113079036FE06C08AE0989E200D1124922E11C0C8
S11307A0EAE02E9E200D1124222EF32DF0623F2E1E
S11307B008C08C3621F4832D8068382E02C0883618
S11307C041F4F70193FD859193FF81917F0181119C
S11307D0B3CF982F9F7D9554933028F40C5F1F4F0F
S11307E09FE399830DC0833631F0833771F08335ED
S11307F009F059C021C0F801808189830E5F1F4F21
S113080088248394912C530113C02801F2E04F0EE5
S1130810511CF801A080B18036FE03C0692D70E040
S113082002C06FEF7FEFC5010E945A054C0182019F
S1130830F32DFF773F2E16C0280122E0420E511CF3
S1130840F801A080B18036FE03C0692D70E002C0BB
S11308506FEF7FEFC5010E944F054C01F32DF06847
S11308603F2E820133FC1BC0822D90E0881699062E
S1130870B0F4B60180E290E00E9465052A94F4CFBA
S1130880F50137FC859137FE81915F01B60190E057
S11308900E94650521102A9421E0821A910881148E
S11308A0910471F7E8C0843611F0893641F5F801F6
S11308B037FE07C060817181828193810C5F1F4F75
S11308C008C060817181072E000C880B990B0E5FA4
S11308D01F4FF32DFF763F2E97FF09C0909580950B
S11308E0709561957F4F8F4F9F4FF0683F2E2AE0A0
S11308F030E0A3010E94A105882E861845C08537E3
S113090031F4232D2F7EB22E2AE030E025C0932D22
S1130910997FB92E8F36C1F018F4883579F0B5C0B7
S1130920803719F0883721F0B0C0E92FE061BE2E7E
S1130930B4FE0DC0FB2DF460BF2E09C034FE0AC006
S1130940292F2660B22E06C028E030E005C020E141
S113095030E002C020E132E0F801B7FE07C0608158
S11309607181828193810C5F1F4F06C06081718108
S113097080E090E00E5F1F4FA3010E94A105882E26
S11309808618FB2DFF773F2E36FE0DC0232D2E7FBC
S1130990A22E891458F434FE0BC032FC09C0832DF6
S11309A08E7EA82E05C0B82CA32C03C0B82C01C081
S11309B0B92CA4FE0FC0FE01E80DF11D8081803327
S11309C021F49A2D997EA92E09C0A2FE06C0B394E3
S11309D0B39404C08A2D867809F0B394A3FC11C0A3
S11309E0A0FE06C0B21488F4280C922C9B180EC0EA
S11309F0B21460F4B60180E290E00E946505B394FD
S1130A00F7CFB21418F42B1802C0982C212CA4FE92
S1130A1010C0B60180E390E00E946505A2FE17C0F5
S1130A20A1FC03C088E790E002C088E590E0B6012D
S1130A300CC08A2D867859F0A1FE02C08BE201C059
S1130A4080E2A7FC8DE2B60190E00E94650589145E
S1130A5038F4B60180E390E00E9465059A94F7CFDC
S1130A608A94F301E80DF11D8081B60190E00E94A3
S1130A7065058110F5CF222009F442CEB60180E24B
S1130A8090E00E9465052A94F6CFF601868197814D
S1130A9002C08FEF9FEF2B96E2E10C941B06FC0142
S1130AA00590615070400110D8F7809590958E0F95
S1130AB09F1F0895FC016150704001900110D8F708
S1130AC0809590958E0F9F1F08950F931F93CF933A
S1130AD0DF93FB01238121FD03C08FEF9FEF2CC027
S1130AE022FF16C04681578124813581421753075E
S1130AF044F4A081B1819D012F5F3F4F3183208356
S1130B008C93268137812F5F3F4F3783268314C010
S1130B108B01EC01FB010084F185E02D0995892B03
S1130B20E1F6D80116968D919C9117970196179628
S1130B309C938E931697CE01DF91CF911F910F91C5
S1130B400895FA01AA27283051F1203181F1E8945F
S1130B506F936E7F6E5F7F4F8F4F9F4FAF4FB1E0AC
S1130B603ED0B4E03CD0670F781F891F9A1FA11DA7
S1130B70680F791F8A1F911DA11D6A0F711D811DA8
S1130B80911DA11D20D009F468943F912AE0269F6D
S1130B9011243019305D3193DEF6CF010895462FCC
S1130BA04770405D4193B3E00FD0C9F7F6CF462FAD
S1130BB04F70405D4A3318F0495D31FD4052419316
S1130BC002D0A9F7EACFB4E0A695979587957795D3
S1130BD06795BA95C9F700976105710508959B015A
S1130BE0AC010A2E06945795479537952795BA95E3
S1130BF0C9F7620F731F841F951FA01D08952F92BC
S1130C003F924F925F926F927F928F929F92AF9298
S1130C10BF92CF92DF92EF92FF920F931F93CF93E5
S1130C20DF93CDB7DEB7CA1BDB0B0FB6F894DEBF7C
S1130C300FBECDBF09942A88398848885F846E84A2
S1130C407D848C849B84AA84B984C884DF80EE80EC
S1130C50FD800C811B81AA81B981CE0FD11D0FB6F5
S1130C60F894DEBF0FBECDBFED010895F894FFCF19
S1130C700D0A333238205570212043686172616354
S1130C80746572732077696C6C206563686F2E0DD0
S1130C900A000A41544F443A2025690020513A2061
S1110CA025640020564F4C543A2025660A0065
S9030000FC
